:100000000C941D010C9445010C9445010C94450180
:100010000C9445010C9445010C9445010C94450148
:100020000C9445010C9445010C9478050C944404FF
:100030000C9445010C9445010C9445010C94450128
:100040000C9445010C9445010C9445010C94450118
:100050000C9445010C9445010C9445010C945D01F0
:100060000C9445010C9445010C9445010C944501F8
:100070000C9445010C9445010C9445010C944501E8
:100080000C9445010C9445010C9445010C944501D8
:100090000C9445010C9445010C9445010C944501C8
:1000A0000C9445010C9445010C94450100C18081DC
:1000B000C11201000202000040412336800001010C
:1000C00002000112010002000000404123368000BE
:1000D000010102000141726475696E6F204C4C434E
:1000E0000041726475696E6F204C656F6E61726459
:1000F0006F0004030904080B000202020100090456
:100100000000010202000005240010010524010185
:1001100001042402060524060001070581031000DE
:100120004009040100020A00000007050202400025
:1001300000070583024000000000000000000000EE
:100140002A2B280000000000000000000000000032
:1001500000000000000000002C9EB4A0A1A2A43466
:10016000A6A7A5AE362D3738271E1F20212223240F
:100170002526B333B62EB7B89F8485868788898AAB
:100180008B8C8D8E8F909192939495969798999A47
:100190009B9C9D2F3130A3AD350405060708090A45
:1001A0000B0C0D0E0F101112131415161718191A27
:1001B0001B1C1DAFB1B0B500090402000103000013
:1001C00000092101010001226500070584034000A8
:1001D0000105010902A1010901A100850105091913
:1001E000012903150025019503750181029501750B
:1001F00005810305010930093109381581257F750D
:100200000895038106C0C005010906A10185020504
:100210000719E029E7150025017501950881029568
:1002200001750881039506750815002565050719F0
:100230000029658100C0AA06FD0711241FBECFEF6B
:10024000DAE0DEBFCDBF11E0A0E0B1E0E4E7F0E12D
:1002500002C005900D92A832B107D9F721E0A8E2BB
:10026000B1E001C01D92A739B207E1F712E0CAE37D
:10027000D2E004C02297FE010E943408C633D107A1
:10028000C9F70E944A010C9438080C9400000895A4
:10029000089508950E94F2010E94490181E391E0CE
:1002A0000E94CE050E944701C0E0D0E00E944801B4
:1002B0002097E1F30E940000F9CF1F920F920FB632
:1002C0000F9211242F933F938F939F93AF93BF93DC
:1002D0008091290190912A01A0912B01B0912C01CC
:1002E0003091280123E0230F2D3720F40196A11D22
:1002F000B11D05C026E8230F0296A11DB11D209354
:1003000028018093290190932A01A0932B01B09397
:100310002C0180912D0190912E01A0912F01B0917F
:1003200030010196A11DB11D80932D0190932E01E6
:10033000A0932F01B0933001BF91AF919F918F9106
:100340003F912F910F900FBE0F901F9018953FB7C0
:10035000F89480912D0190912E01A0912F01B091E0
:10036000300126B5A89B05C02F3F19F00196A11DAD
:10037000B11D3FBF6627782F892F9A2F620F711DFD
:10038000811D911D42E0660F771F881F991F4A95B6
:10039000D1F70895CF92DF92EF92FF92CF93DF9340
:1003A0006B017C010E94A701EB01C114D104E1049F
:1003B000F10489F00E94EC050E94A7016C1B7D0BE3
:1003C000683E734090F381E0C81AD108E108F10853
:1003D000C851DC4FEACFDF91CF91FF90EF90DF90D3
:1003E000CF900895789484B5826084BD84B581608F
:1003F00084BD85B5826085BD85B5816085BDEEE62D
:10040000F0E0808181608083E1E8F0E0108280810B
:1004100082608083808181608083E0E8F0E0808179
:1004200081608083E1E9F0E0808182608083808167
:1004300081608083E0E9F0E0808181608083E1EC8D
:10044000F0E080818460808380818260808380810D
:1004500081608083E3ECF0E0808181608083E0EC68
:10046000F0E0808182608083E2ECF0E08081816056
:100470008083EAE7F0E0808184608083808182600D
:1004800080838081816080838081806880830895FB
:100490004091350150913601209133013091340162
:1004A00042175307B4F49091E8009570E1F39091EE
:1004B000E80092FD19C08093F10080913501909180
:1004C000360101968F739927892B19F48EEF80934B
:1004D000E8008091350190913601019690933601A4
:1004E0008093350181E0089580E00895CF92DF92F6
:1004F000FF920F931F93CF93DF931F92CDB7DEB779
:10050000082F162F862F880F8E5F99830E9448022E
:1005100083E00E944802F02EC02E9981D92E8C2DA6
:100520008F19811778F4F60184910E944802082FF0
:1005300080E00E9448028023FFEFCF1ADF0A81117A
:10054000EECF01C081E00F90DF91CF911F910F910D
:10055000FF90DF90CF900895615030F02091F1002E
:10056000FC0120830196F8CF289884E68093380117
:1005700008952FB7FC012083F89467706093E90019
:100580000895CF93DF931F92CDB7DEB7682FCE01CA
:1005900001960E94B9028091F20099819FBF0F904D
:1005A000DF91CF910895FF920F931F93CF93DF9325
:1005B00000D0CDB7DEB7F62E8A019091370199238E
:1005C00011F057FF03C08FEF9FEF2BC0682FCE01B4
:1005D00001967A830E94B9028091F20090E0A8010E
:1005E0007A81801791070CF4AC01EF2DF72FF40EF0
:1005F00084E6FE1639F02898809338019091F10036
:100600009193F7CF4115510521F08091F200882395
:1006100021F089818FBFCA0104C08BE68093E80076
:10062000F8CF0F900F90DF91CF911F910F91FF9016
:100630000895CF93DF931F92CDB7DEB741E050E02E
:10064000BE016F5F7F4F0E94D302019719F4898129
:1006500090E002C08FEF9FEF0F90DF91CF91089550
:10066000CF93DF931F92CDB7DEB7682FCE010196EF
:100670000E94B9029091E800892F807295FF04C012
:100680009091F20080E4891B99819FBF0F90DF91C8
:10069000CF9108956F927F928F929F92AF92BF9267
:1006A000CF92DF92EF92FF920F931F93CF93DF933E
:1006B0001F92CDB7DEB7782E7B01C42EB52E809168
:1006C0003701882369F0042F152F8AEFD82E872D44
:1006D0008072982E9AE3A92E872D8074882E11C0DF
:1006E0008FEF9FEF57C0872D0E943003682E811136
:1006F0000CC0DA94A9F361E070E080E090E00E9421
:10070000CA010115110579F73BC0282F30E0021707
:1007100013070CF4602E672DCE0101960E94B902DA
:100720008091E80085FF29C0262D30E0021B130BC5
:10073000992039F06A948FEF6816B1F01092F100A9
:10074000F9CFF701862D77FE07C0815058F09491BC
:100750009093F1003196F9CF815020F091919093D0
:10076000F100FACFE20EF31E8091E80085FF0FC082
:100770000115110511F481100AC089818FBFC1CF05
:100780005D9884E6809339018C2D9B2D03C0A09247
:10079000E800F3CF0F90DF91CF911F910F91FF9061
:1007A000EF90DF90CF90BF90AF909F908F907F9011
:1007B0006F9008951092E900109236011092350161
:1007C00090933401809333010895CF92DF92FF928A
:1007D0000F931F93CF93DF9300D0CDB7DEB7F82EE2
:1007E0008A016B0101151105B1F0F601F7FE02C097
:1007F000849101C0808149835A830E94480201503C
:100800001109FFEFCF1ADF0A49815A818111EACF1E
:100810008FEF9FEF01C0CA010F900F90DF91CF9132
:100820001F910F91FF90DF90CF9008951F93CF936A
:10083000DF931F92CDB7DEB7162F2091E80022FF7D
:10084000FCCF612F79830E94AC028BEF8093E8008C
:10085000812F7981972F0F90DF91CF911F9108956C
:10086000CF93DF931F92CDB7DEB71982CE010196E9
:100870000E944A06CE0101960E94E506898190E019
:100880000F90DF91CF9108951F920F920FB60F92A4
:100890001124EF92FF920F931F932F933F934F9347
:1008A0005F936F937F938F939F93AF93BF93EF93D8
:1008B000FF93CF93DF93CDB7DEB76297DEBFCDBF97
:1008C0001092E9008091E80083FFEBC068E0CE0160
:1008D0000A960E94AC0282EF8093E8009A8597FF07
:1008E00005C08091E80080FFFCCF03C08EEF8093AD
:1008F000E800892F807609F0B9C08B85811105C089
:100900001092F1001092F100C5C0282F2D7F2130E8
:1009100009F4C0C0853049F48091E80080FFFCCF25
:100920008C8580688093E300B5C0863009F076C07E
:100930002D85E888F988223071F580E090E02A8BD7
:100940000E94DA030E94300499E08E010F5F1F4F6E
:10095000F801392F11923A95E9F799832A892A8368
:1009600091E09E8390E898879AEF998720913501CE
:1009700030913601275F3F4F3C832B838D83C70126
:100980000E94DA0349E050E0B80180E00E94E503EC
:100990000E9430047FC0C7012A8B0E94DA032A8993
:1009A000223241F482E290E00E94F006892B09F0A5
:1009B00071C074C0213069F488899989089711F44D
:1009C0002093320180913201811118C063EC70E0F4
:1009D0001AC0233009F062C08C85882391F08230E0
:1009E00021F460E181EE90E006C0813009F056C04C
:1009F0006BE085ED90E00E9476024AC061EB70E00A
:100A000002C062EF70E06115710509F447C0FB0197
:100A1000449150E080E80E94E5033CC0873009F42F
:100A20003DC0883021F481E08093F10033C08930EB
:100A300089F5937099F5EDEAF0E081E021E096E325
:100A40008093E9002093EB0034913093EC00909375
:100A5000ED008F5F3196853099F78EE78093EA003D
:100A60001092EA008C858093370114C08889998997
:100A70000E94DA038E85811105C0CE010A960E947C
:100A8000550606C0823051F4CE010A960E9418071E
:100A9000882321F08EEF8093E80003C081E28093E9
:100AA000EB0062960FB6F894DEBF0FBECDBFDF91AC
:100AB000CF91FF91EF91BF91AF919F918F917F91D6
:100AC0006F915F914F913F912F911F910F91FF90E7
:100AD000EF900F900FBE0F901F9018958093E90034
:100AE0008091F200882319F08AE38093E80008954A
:100AF0001F920F920FB60F9211242F933F934F9393
:100B00005F936F937F938F939F93AF93BF93EF9375
:100B1000FF938091E1001092E10083FF0FC01092DB
:100B2000E90091E09093EB001092EC0092E3909337
:100B3000ED001092370198E09093F00082FF1DC005
:100B400083E00E946E0580913901882339F08091FD
:100B50003901815080933901882369F080913801EF
:100B6000882359F080913801815080933801811198
:100B700004C0289A02C05D9AF1CFFF91EF91BF9116
:100B8000AF919F918F917F916F915F914F913F9125
:100B90002F910F900FBE0F901F9018951092370154
:100BA00081E08093D70080EA8093D80082E189BDFC
:100BB00009B400FEFDCF61E070E080E090E00E94AB
:100BC000CA0180E98093D8008CE08093E200109203
:100BD000E000559A209A08950895CF93DF931F92CD
:100BE000CDB7DEB76983DC01ED91FC910280F38122
:100BF000E02D41E050E0BE016F5F7F4F09950F90FF
:100C0000DF91CF910895CF93DF93EC018C859D8583
:100C100097FF05C082E00E9419039D878C878C8511
:100C20009D85DF91CF91089583E00C946E05FC01C2
:100C30008485958597FD06C082E00E94C10290E000
:100C40000196089582E00E94C10290E00895FC019F
:100C50008485958597FD05C02FEF3FEF3587248765
:100C6000089582E00C941903CF93DF93EC018091F7
:100C70000701882331F083E00E944A031816190601
:100C800034F081E090E09B838A8380E090E0DF9104
:100C9000CF910895FC0120812E5F208342E450E033
:100CA00066EF70E080E80C94E503FC01818190819F
:100CB000913A59F4813209F03CC047E050E060E0DD
:100CC00071E080E00E94E50343C0913291F58032EB
:100CD00039F467E070E080E091E00E94160406C0FD
:100CE000823209F035C08281809307018091000132
:100CF00090910101A0910201B0910301803B9440C9
:100D0000A105B105C1F48091070180FD14C087E7FA
:100D100097E790930108809300082BE088E190E02A
:100D20000FB6F894A895809360000FBE20936000E2
:100D30000FC080E0089588E10FB6F89480936000BA
:100D4000109260000FBEA895109201081092000842
:100D500081E0089510923D0110923C0188EE93E0ED
:100D6000A0E0B0E080933E0190933F01A09340014A
:100D7000B09341018EE091E090933B0180933A0162
:100D80008FEF9FEF90934701809346010895FF9264
:100D90000F931F93CF93DF93EC01F62EE881F98137
:100DA0000480F581E02D09958C01E881F9810680A8
:100DB000F781E02D6F2DCE010995C8019927DF91AC
:100DC000CF911F910F91FF900895FC0120812F5F1B
:100DD000208349E150E068EB71E080E80C94E50382
:100DE00045E650E061ED71E080E80C94E503EF9298
:100DF000FF920F931F93CF93DF931F92CDB7DEB770
:100E000089838B017A0141E050E0BE016F5F7F4F23
:100E100084E00E944A03A701B80184E40E944A03C7
:100E20000F90DF91CF911F910F91FF90EF90089558
:100E3000FC0191818081813A31F481E0913091F01F
:100E4000933089F411C0813271F49B3021F4828196
:100E50008093090105C09A3031F4828180930801A2
:100E600081E00895089580E0089548E050E082E030
:100E70000C94F706CF93DF93DC01683818F0E8E7AD
:100E8000E60F25C0E62FF0E067FF11C0E058F1093A
:100E900081E090E001C0880FEA95EAF714969C91F2
:100EA0001497982B14969C931497E0E010C0E85C7C
:100EB000FE4FE491EE2309F440C0E7FF08C014960A
:100EC0008C911497826014968C931497EF771696F2
:100ED0008C9116978E1741F117968C9117978E1754
:100EE00019F118968C9118978E17F1F019968C912C
:100EF00019978E17C9F01A968C911A978E17A1F030
:100F00001B968C911B978E1779F080E090E0ED0195
:100F1000C80FD91F2E81211102C0EE8305C0019692
:100F200086309105A1F709C0BD016C5F7F4FCD01EF
:100F30000E94350781E090E008C081E090E01396C0
:100F40009C938E93129780E090E0DF91CF9108956B
:100F5000683818F0E8E7E60F25C0E62FF0E067FFF5
:100F600012C0E058F10921E030E001C0220FEA95FB
:100F7000EAF72095DC0114963C91149732231496DD
:100F80003C93E0E00FC0E85CFE4FE491EE2329F1D2
:100F9000E7FF08C0DC0114962C9114972D7F14965E
:100FA0002C93EF7720E030E0EE2351F0DC01A20F2C
:100FB000B31F16964C9116974E1302C016961C92AC
:100FC0002F5F3F4F2630310579F7BC016C5F7F4FB3
:100FD0000E94350781E090E0089580E090E0089558
:100FE000FC011682178210861186128613861482DF
:100FF000BC016C5F7F4F0C943507109296011092E4
:101000008D0110928C018EE191E090938B01809381
:101010008A010895CF92DF92EF92FF920F931F9370
:10102000CF93DF936C017A01EB01E60EF71E00E02F
:1010300010E0CE15DF0561F06991D601ED91FC91CC
:101040000190F081E02DC6010995080F191FF1CF1D
:10105000C801DF91CF911F910F91FF90EF90DF902A
:10106000CF900895EE0FFF1F0590F491E02D0994A5
:04107000F894FFCF22
:1010740000E1000000000000010100000000ED0597
:101084003406170627060306140600000000C706E8
:081094000A083A07A807F0075B
:00000001FF
